:060000000A128A110E280D
:10000800FE00030EF4000408F5000A08F6000A12C0
:100018008A11EA2D0A128A11112883135030FD0023
:100028000630FE00C230FF00203084000A128A1118
:10003800F6260A128A110A128A1105270A128A114B
:10004800F900F701F80183010A128A115F2E0D30B9
:1000580083120313D100FB30D000D00B3128D10B11
:100068003128831203130C1E3A283B283D285130AF
:1000780099000D3083120313D100FB30D000D00B50
:100088004328D10B4328831203130C1E4C284D28F8
:100098004F28753099000D3083120313D100FB30BF
:1000A800D000D00B5528D10B5528831203130C1EF2
:1000B8005E285F286128653099000D30831203138C
:1000C800D100FB30D000D00B6728D10B67288312F2
:1000D80003130C1E702871287328203099000D30E6
:1000E80083120313D100FB30D000D00B7928D10B39
:1000F8007928831203130C1E8228832885286130EF
:1001080099000D3083120313D100FB30D000D00BBF
:100118008B28D10B8B28831203130C1E9428952847
:100128009728633099000D3083120313D100FB30F8
:10013800D000D00B9D28D10B9D28831203130C1ED1
:10014800A628A728A928633099000D308312031325
:10015800D100FB30D000D00BAF28D10BAF288312D1
:1001680003130C1EB828B928BB28693099000D3034
:1001780083120313D100FB30D000D00BC128D10B60
:10018800C128831203130C1ECA28CB28CD286F3030
:1001980099000D3083120313D100FB30D000D00B2F
:1001A800D328D10BD328831203130C1EDC28DD2897
:1001B800DF286E3099000C1EE228E328E52820305D
:1001C80099000D3083120313D100FB30D000D00BFF
:1001D800EB28D10BEB28831203130C1EF428F52807
:1001E800F728643099000D3083120313D100FB30D7
:1001F800D000D00BFD28D10BFD28831203130C1E51
:10020800062907290929653099000D30831203133F
:10021800D100FB30D000D00B0F29D10B0F2983124E
:1002280003130C1E182919291B29733099000D3046
:1002380083120313D100FB30D000D00B2129D10B3E
:100248002129831203130C1E2A292B292D296530F5
:1002580099000D3083120313D100FB30D000D00B6E
:100268003329D10B3329831203130C1E3C293D2952
:100278003F29613099000D3083120313D100FB3000
:10028800D000D00B4529D10B4529831203130C1E2E
:100298004E294F295129203099000D30831203131C
:1002A800D100FB30D000D00B5729D10B572983122E
:1002B80003130C1E602961296329653099000D30EC
:1002C80083120313D100FB30D000D00B6929D10B66
:1002D8006929831203130C1E7229732975296A3040
:1002E80099000D3083120313D100FB30D000D00BDE
:1002F8007B29D10B7B29831203130C1E84298529A2
:100308008729653099000D3083120313D100FB3023
:10031800D000D00B8D29D10B8D29831203130C1E0D
:10032800962997299929633099000D308312031370
:10033800D100FB30D000D00B9F29D10B9F2983120D
:1003480003130C1EA829A929AB29753099000D3073
:1003580083120313D100FB30D000D00BB129D10B8D
:10036800B129831203130C1EBA29BB29BD29743085
:1003780099000D3083120313D100FB30D000D00B4D
:10038800C329D10BC329831203130C1ECC29CD29F1
:10039800CF29613099000D3083120313D100FB304F
:1003A800D000D00BD529D10BD529831203130C1EED
:1003B800DE29DF29E129723099000C1EE429E5299C
:1003C800E7293F3099000D3083120313D100FB3029
:1003D800D000D00BED29D10BED29831203130C1E8D
:1003E800F629F729F9290D3099000D3083120313E6
:1003F800D100FB30D000D00BFF29D10BFF2983128D
:1004080003130C1E082A092A0B2A283099000D30DC
:1004180083120313D100FB30D000D00B112AD10B6B
:10042800112A831203130C1E1A2A1B2A1D2A313083
:1004380099000D3083120313D100FB30D000D00B8C
:10044800232AD10B232A831203130C1E2C2A2D2AAC
:100458002F2A293099000D3083120313D100FB3065
:10046800D000D00B352AD10B352A831203130C1E6A
:100478003E2A3F2A412A203099000D308312031367
:10048800D100FB30D000D00B472AD10B472A83126A
:1004980003130C1E502A512A532A4C3099000D3050
:1004A80083120313D100FB30D000D00B592AD10B93
:1004B800592A831203130C1E622A632A652A4530BF
:1004C80099000D3083120313D100FB30D000D00BFC
:1004D8006B2AD10B6B2A831203130C1E742A752AFC
:1004E800772A453099000D3083120313D100FB3071
:1004F800D000D00B7D2AD10B7D2A831203130C1E4A
:10050800862A872A892A523099000D3083120313CC
:10051800D100FB30D000D00B8F2AD10B8F2A831249
:1005280003130C1E982A992A9B2A203099000D3013
:1005380083120313D100FB30D000D00BA12AD10BBA
:10054800A12A831203130C1EAA2AAB2AAD2A503003
:1005580099000D3083120313D100FB30D000D00B6B
:10056800B32AD10BB32A831203130C1EBC2ABD2A4B
:10057800BF2A4F3099000D3083120313D100FB308E
:10058800D000D00BC52AD10BC52A831203130C1E29
:10059800CE2ACF2AD12A543099000D308312031362
:1005A800D100FB30D000D00BD72AD10BD72A831229
:1005B80003130C1EE02AE12AE32A453099000D3086
:1005C80083120313D100FB30D000D00BE92AD10BE2
:1005D800E92A831203130C1EF22AF32AF52A4E3055
:1005E80099000D3083120313D100FB30D000D00BDB
:1005F800FB2AD10BFB2A831203130C1E042B052B99
:10060800072B453099000D3083120313D100FB30BE
:10061800D000D00B0D2BD10B0D2B831203130C1E06
:10062800162B172B192B4E3099000D3083120313FC
:10063800D100FB30D000D00B1F2BD10B1F2B831206
:1006480003130C1E282B292B2B2B433099000D301C
:1006580083120313D100FB30D000D00B312BD10B08
:10066800312B831203130C1E3A2B3B2B3D2B4930A5
:1006780099000D3083120313D100FB30D000D00B4A
:10068800432BD10B432B831203130C1E4C2B4D2BE6
:100698004F2B4F3099000D3083120313D100FB30DC
:1006A800D000D00B552BD10B552B831203130C1EE6
:1006B8005E2B5F2B612B4D3099000D308312031395
:1006C800D100FB30D000D00B672BD10B672B8312E6
:1006D80003130C1E702B712B732B453099000D30B2
:1006E80083120313D100FB30D000D00B792BD10B30
:1006F800792B831203130C1E822B832B852B5430EA
:1007080099000D3083120313D100FB30D000D00BB9
:100718008B2BD10B8B2B831203130C1E942B952B35
:10072800972B523099000D3083120313D100FB3000
:10073800D000D00B9D2BD10B9D2B831203130C1EC5
:10074800A62BA72BA92B4F3099000D30831203132A
:10075800D100FB30D000D00BAF2BD10BAF2B8312C5
:1007680003130C1EB82BB92BBB2B0A3099000D3084
:1007780083120313D100FB30D000D00BC12BD10B57
:10078800C12B831203130C1ECA2BCB2BCD2B20306D
:1007980099000D3083120313D100FB30D000D00B29
:1007A800D32BD10BD32B831203130C1EDC2BDD2B85
:1007B800DF2B0D3099000D3083120313D100FB306D
:1007C800D000D00BE52BD10BE52B831203130C1EA5
:1007D800EE2BEF2BF12B283099000D3083120313E9
:1007E800D100FB30D000D00BF72BD10BF72B8312A5
:1007F80003130C1E002C012C032C323099000D30F1
:1008080083120313D100FB30D000D00B092CD10B7D
:10081800092C831203130C1E122C132C152C2930AF
:1008280099000D3083120313D100FB30D000D00B98
:100838001B2CD10B1B2C831203130C1E242C252CD0
:10084800272C203099000D3083120313D100FB3080
:10085800D000D00B2D2CD10B2D2C831203130C1E82
:10086800362C372C392C453099000D308312031360
:10087800D100FB30D000D00B3F2CD10B3F2C831282
:1008880003130C1E482C492C4B2C4E3099000D306C
:1008980083120313D100FB30D000D00B512CD10BA5
:1008A800512C831203130C1E5A2C5B2C5D2C5630D2
:1008B80099000D3083120313D100FB30D000D00B08
:1008C800632CD10B632C831203130C1E6C2C6D2C20
:1008D8006F2C493099000D3083120313D100FB307F
:1008E800D000D00B752CD10B752C831203130C1E62
:1008F8007E2C7F2C812C413099000D3083120313FC
:10090800D100FB30D000D00B872CD10B872C831261
:1009180003130C1E902C912C932C523099000D30FF
:1009280083120313D100FB30D000D00B992CD10BCC
:10093800992C831203130C1EA22CA32CA52C203057
:1009480099000D3083120313D100FB30D000D00B77
:10095800AB2CD10BAB2C831203130C1EB42CB52C6F
:10096800B72C413099000D3083120313D100FB30AE
:10097800D000D00BBD2CD10BBD2C831203130C1E41
:10098800C62CC72CC92C533099000D308312031381
:10099800D100FB30D000D00BCF2CD10BCF2C831241
:1009A80003130C1ED82CD92CDB2C433099000D30A6
:1009B80083120313D100FB30D000D00BE12CD10BF4
:1009C800E12C831203130C1EEA2CEB2CED2C49307E
:1009D80099000D3083120313D100FB30D000D00BE7
:1009E800F32CD10BF32C831203130C1EFC2CFD2CBF
:1009F800FF2C493099000D3083120313D100FB30CE
:100A0800D000D00B052DD10B052D831203130C1E1E
:100A18000E2D0F2D112D0D3099000D30831203135B
:100A2800D100FB30D000D00B172DD10B172D83121E
:100A380003130C1E202D212D232D0A3099000D3073
:100A480083120313D100FB30D000D00B292DD10B1A
:100A5800292D831203130C1E322D332D352D2830EA
:100A680099000D3083120313D100FB30D000D00B56
:100A78003B2DD10B3B2D831203130C1E442D452D0A
:100A8800472D333099000D3083120313D100FB300A
:100A9800D000D00B4D2DD10B4D2D831203130C1EFE
:100AA800562D572D592D293099000D3083120313D7
:100AB800D100FB30D000D00B5F2DD10B5F2D8312FE
:100AC80003130C1E682D692D6B2D203099000D30F5
:100AD80083120313D100FB30D000D00B712DD10B42
:100AE800712D831203130C1E7A2D7B2D7D2D43301F
:100AF80099000D3083120313D100FB30D000D00BC6
:100B0800832DD10B832D831203130C1E8C2D8D2D59
:100B18008F2D413099000D3083120313D100FB3023
:100B2800D000D00B952DD10B952D831203130C1EDD
:100B38009E2D9F2DA12D443099000D308312031353
:100B4800D100FB30D000D00BA72DD10BA72D8312DD
:100B580003130C1EB02DB12DB32D453099000D3067
:100B680083120313D100FB30D000D00BB92DD10B69
:100B7800B92D831203130C1EC22DC32DC52D4E3063
:100B880099000D3083120313D100FB30D000D00B35
:100B9800CB2DD10BCB2D831203130C1ED42DD52DA9
:100BA800D72D413099000D3083120313D100FB304B
:100BB800D000D00BDD2DD10BDD2D831203130C1EBD
:100BC800E62DE72DE92D0D30990008008312031357
:100BD8008C1EEF2DF02D562E462E9F149F18F52DA6
:100BE800F62DF22D0C131E0899001A30F300F83078
:100BF800F200F20BFD2DF30BFD2D00008312031301
:100C08000C1E072E082E0A2E0D3099000A128A157E
:100C180092220A128A11562E8C1E132E142E182E6A
:100C28001A088600FF30F800780803191C2E1D2EBC
:100C3800102E8230F300DD30F200F20B212EF30B80
:100C4800212E262E831203130C1E2B2E2C2E2E2E15
:100C58000D3099008230F300DD30F200F20B322EB5
:100C6800F30B322E372E831203130C1E3C2E3D2E0F
:100C78003F2E0D3099000A128A1592220A128A1103
:100C8800F801562E1A08F200F3017308003A031906
:100C98004E2E562E7208313A0319F12D033A0319D4
:100CA800102E562E76088A0075088400740E83006C
:100CB800FE0E7E0E0900831603130F178F120F12F4
:100CC8000F148316031788018901831603138601FD
:100CD800831203138601831603131812181583163B
:100CE8000317871519308316031399009A01831285
:100CF80003139817181318168316031398168312DC
:100D080003138C16831603138C160B178B17831279
:100D180003138C100330920412158C1C942E952EFC
:100D2800912E8C10831603130711871005080138BC
:100D380085008316031708080138880083120313F7
:100D48009F131F17831603139F121F129F138312DB
:100D580003139F121F129F111F111F14413083127A
:100D68000313D200D20BB62EB92E0A128A112B20E9
:100D78000A128A11BE2E0A128A110E2849346E34BC
:100D880067346E34693465347234693461340A34D2
:100D9800203465346C3465346334743472346F349D
:100DA8006E346934633461340A34203465347334FE
:100DB8000A3420346C3461340A3420346D3461349C
:100DC80073340A34203463346134623472346F34D7
:100DD8006E3461340A3420340A3400347E088A00C0
:100DE8007F0882000A128A11F2260A128A118000EC
:100DF800840A04087D0603190034FF0A0319FE0A51
:040E0800F62E463448
:101524000D30F100FB30F000F00B962AF10B962AF7
:101534009B2A831203130C1EA02AA12AA32A51302A
:1015440099000D30F100FB30F000F00BA72AF10BED
:10155400A72AAC2A831203130C1EB12AB22AB42A76
:10156400753099000D30F100FB30F000F00BB82A13
:10157400F10BB82ABD2A831203130C1EC22AC32AF4
:10158400C52A653099000D30F100FB30F000F00BF6
:10159400C92AF10BC92ACE2A831203130C1ED32A9B
:1015A400D42AD62A203099000D30F100FB30F00007
:1015B400F00BDA2AF10BDA2ADF2A831203130C1E4A
:1015C400E42AE52AE72A613099000D30F100FB3066
:1015D400F000F00BEB2AF10BEB2AF02A8312031331
:1015E4000C1EF52AF62AF82A633099000D30F10012
:1015F400FB30F000F00BFC2AF10BFC2A012B8312C8
:1016040003130C1E062B072B092B633099000D3096
:10161400F100FB30F000F00B0D2BF10B0D2B122B16
:10162400831203130C1E172B182B1A2B69309900E5
:101634000D30F100FB30F000F00B1E2BF10B1E2BD4
:10164400232B831203130C1E282B292B2B2B6F30D7
:1016540099000D30F100FB30F000F00B2F2BF10B53
:101664002F2B342B831203130C1E392B3A2B3C2BB8
:101674006E3099000C1E3F2B402B422B20309900DA
:101684000D30F100FB30F000F00B462BF10B462B34
:101694004B2B831203130C1E502B512B532B6430F2
:1016A40099000D30F100FB30F000F00B572BF10BDB
:1016B400572B5C2B831203130C1E612B622B642BA0
:1016C400653099000D30F100FB30F000F00B682B11
:1016D400F10B682B6D2B831203130C1E722B732BCF
:1016E400752B733099000D30F100FB30F000F00BD6
:1016F400792BF10B792B7E2B831203130C1E832B76
:10170400842B862B653099000D30F100FB30F000FE
:10171400F00B8A2BF10B8A2B8F2B831203130C1ED5
:10172400942B952B972B613099000D30F100FB30F1
:10173400F000F00B9B2BF10B9B2BA02B83120313BC
:101744000C1EA52BA62BA82B203099000D30F100E0
:10175400FB30F000F00BAC2BF10BAC2BB12B831254
:1017640003130C1EB62BB72BB92B653099000D3023
:10177400F100FB30F000F00BBD2BF10BBD2BC22BA5
:10178400831203130C1EC72BC82BCA2B6A30990073
:101794000D30F100FB30F000F00BCE2BF10BCE2B13
:1017A400D32B831203130C1ED82BD92BDB2B6530C0
:1017B40099000D30F100FB30F000F00BDF2BF10B42
:1017C400DF2BE42B831203130C1EE92BEA2BEC2BE7
:1017D400633099000D30F100FB30F000F00BF02B7A
:1017E400F10BF02BF52B831203130C1EFA2BFB2B9E
:1017F400FD2B753099000D30F100FB30F000F00B3B
:10180400012CF10B012C062C831203130C1E0B2C40
:101814000C2C0E2C743099000D30F100FB30F000CC
:10182400F00B122CF10B122C172C831203130C1E29
:101834001C2C1D2C1F2C613099000D30F100FB3045
:10184400F000F00B232CF10B232C282C8312031310
:101854000C1E2D2C2E2C302C723099000C1E332C87
:10186400342C362C3F3099000D30F100FB30F00061
:10187400F00B3A2CF10B3A2C3F2C831203130C1E61
:10188400442C452C472C0D3099000D30F100FB30D1
:10189400F000F00B4B2CF10B4B2C502C8312031348
:1018A4000C1E552C562C582C283099000D30F10064
:1018B400FB30F000F00B5C2CF10B5C2C612C8312E0
:1018C40003130C1E662C672C692C313099000D30E3
:1018D400F100FB30F000F00B6D2CF10B6D2C722C31
:1018E400831203130C1E772C782C7A2C2930990040
:1018F4000D30F100FB30F000F00B7E2CF10B7E2C50
:10190400832C831203130C1E882C892C8B2C2030DF
:1019140099000D30F100FB30F000F00B8F2CF10B2F
:101924008F2C942C831203130C1E992C9A2C9C2C10
:101934004C3099000D30F100FB30F000F00BA02C7E
:10194400F10BA02CA52C831203130C1EAA2CAB2C78
:10195400AD2C453099000D30F100FB30F000F00B58
:10196400B12CF10BB12CB62C831203130C1EBB2C1F
:10197400BC2CBE2C453099000D30F100FB30F0003A
:10198400F00BC22CF10BC22CC72C831203130C1EB8
:10199400CC2CCD2CCF2C523099000D30F100FB30E3
:1019A400F000F00BD32CF10BD32CD82C831203139F
:1019B4000C1EDD2CDE2CE02C203099000D30F100C3
:1019C400FB30F000F00BE42CF10BE42CE92C831237
:1019D40003130C1EEE2CEF2CF12C503099000D301B
:1019E400F100FB30F000F00BF52CF10BF52CFA2C88
:1019F400831203130C1EFF2C002D022D4F3099006F
:101A04000D30F100FB30F000F00B062DF10B062D2C
:101A14000B2D831203130C1E102D112D132D543076
:101A240099000D30F100FB30F000F00B172DF10B95
:101A3400172D1C2D831203130C1E212D222D242D52
:101A4400453099000D30F100FB30F000F00B282DEB
:101A5400F10B282D2D2D831203130C1E322D332D43
:101A6400352D4E3099000D30F100FB30F000F00BB5
:101A7400392DF10B392D3E2D831203130C1E432DEA
:101A8400442D462D453099000D30F100FB30F00017
:101A9400F00B4A2DF10B4A2D4F2D831203130C1E0C
:101AA400542D552D572D4E3099000D30F100FB303B
:101AB400F000F00B5B2DF10B5B2D602D83120313F3
:101AC4000C1E652D662D682D433099000D30F100F4
:101AD400FB30F000F00B6C2DF10B6C2D712D83128B
:101AE40003130C1E762D772D792D493099000D3076
:101AF400F100FB30F000F00B7D2DF10B7D2D822DDC
:101B0400831203130C1E872D882D8A2D4F309900C4
:101B14000D30F100FB30F000F00B8E2DF10B8E2D0B
:101B2400932D831203130C1E982D992D9B2D4D304C
:101B340099000D30F100FB30F000F00B9F2DF10BFC
:101B44009F2DA42D831203130C1EA92DAA2DAC2D99
:101B5400453099000D30F100FB30F000F00BB02D52
:101B6400F10BB02DB52D831203130C1EBA2DBB2D12
:101B7400BD2D543099000D30F100FB30F000F00B16
:101B8400C12DF10BC12DC62D831203130C1ECB2DB9
:101B9400CC2DCE2D523099000D30F100FB30F000E9
:101BA400F00BD22DF10BD22DD72D831203130C1E63
:101BB400DC2DDD2DDF2D4F3099000D30F100FB3091
:101BC400F000F00BE32DF10BE32DE82D831203134A
:101BD4000C1EED2DEE2DF02D0A3099000D30F10084
:101BE400FB30F000F00BF42DF10BF42DF92D8312E2
:101BF40003130C1EFE2DFF2D012E203099000D30F5
:101C0400F100FB30F000F00B052EF10B052E0A2E2F
:101C1400831203130C1E0F2E102E122E0D3099005A
:101C24000D30F100FB30F000F00B162EF10B162EE8
:101C34001B2E831203130C1E202E212E232E28303C
:101C440099000D30F100FB30F000F00B272EF10B62
:101C5400272E2C2E831203130C1E312E322E342EDB
:101C6400323099000D30F100FB30F000F00B382ECB
:101C7400F10B382E3D2E831203130C1E422E432EDD
:101C8400452E293099000D30F100FB30F000F00BA7
:101C9400492EF10B492E4E2E831203130C1E532E84
:101CA400542E562E203099000D30F100FB30F000F8
:101CB400F00B5A2EF10B5A2E5F2E831203130C1EB7
:101CC400642E652E672E453099000D30F100FB30EF
:101CD400F000F00B6B2EF10B6B2E702E831203139E
:101CE4000C1E752E762E782E4E3099000D30F10094
:101CF400FB30F000F00B7C2EF10B7C2E812E831236
:101D040003130C1E862E872E892E563099000D3013
:101D1400F100FB30F000F00B8D2EF10B8D2E922E86
:101D2400831203130C1E972E982E9A2E4930990075
:101D34000D30F100FB30F000F00B9E2EF10B9E2EC7
:101D4400A32E831203130C1EA82EA92EAB2E4130F2
:101D540099000D30F100FB30F000F00BAF2EF10BC9
:101D6400AF2EB42E831203130C1EB92EBA2EBC2E22
:101D7400523099000D30F100FB30F000F00BC02E12
:101D8400F10BC02EC52E831203130C1ECA2ECB2EAC
:101D9400CD2E203099000D30F100FB30F000F00B17
:101DA400D12EF10BD12ED62E831203130C1EDB2E53
:101DB400DC2EDE2E413099000D30F100FB30F000B6
:101DC400F00BE22EF10BE22EE72E831203130C1E0E
:101DD400EC2EED2EEF2E533099000D30F100FB3038
:101DE400F000F00BF32EF10BF32EF82E83120313F5
:101DF4000C1EFD2EFE2E002F433099000D30F100F5
:101E0400FB30F000F00B042FF10B042F092F831289
:101E140003130C1E0E2F0F2F112F493099000D3074
:101E2400F100FB30F000F00B152FF10B152F1A2FDA
:101E3400831203130C1E1F2F202F222F49309900C9
:101E44000D30F100FB30F000F00B262FF10B262FA4
:101E54002B2F831203130C1E302F312F332F0D30F1
:101E640099000D30F100FB30F000F00B372FF10B2F
:101E7400372F3C2F831203130C1E412F422F442F64
:101E84000A3099000D30F100FB30F000F00B482FC0
:101E9400F10B482F4D2F831203130C1E522F532F77
:101EA400552F283099000D30F100FB30F000F00B75
:101EB400592FF10B592F5E2F831203130C1E632F1E
:101EC400642F662F333099000D30F100FB30F000A1
:101ED400F00B6A2FF10B6A2F6F2F831203130C1E62
:101EE400742F752F772F293099000D30F100FB30B6
:101EF400F000F00B7B2FF10B7B2F802F8312031349
:101F04000C1E852F862F882F203099000D30F1006C
:101F1400FB30F000F00B8C2FF10B8C2F912F8312E0
:101F240003130C1E962F972F992F433099000D30D1
:101F3400F100FB30F000F00B9D2FF10B9D2FA22F31
:101F4400831203130C1EA72FA82FAA2F4130990028
:101F54000D30F100FB30F000F00BAE2FF10BAE2F83
:101F6400B32F831203130C1EB82FB92FBB2F443089
:101F740099000D30F100FB30F000F00BBF2FF10B96
:101F8400BF2FC42F831203130C1EC92FCA2FCC2FAB
:101F9400453099000D30F100FB30F000F00BD02FEC
:101FA400F10BD02FD52F831203130C1EDA2FDB2F46
:101FB400DD2F4E3099000D30F100FB30F000F00BB6
:101FC400E12FF10BE12FE62F831203130C1EEB2FED
:101FD400EC2FEE2F413099000D30F100FB30F00072
:101FE400F00BF22FF10BF22FF72F831203130C1EB9
:0C1FF400FC2FFD2FFF2F0D30990008007E
:08400000FF3FFF3FFF3FFF3FC0
:04400E00C430FF3F7C
:00000001FF
